:100000000C943F000C94BE020C94BE020C94BE02F1
:100010000C94BE020C94BE020C94BE020C94BE0260
:100020000C94BE020C94BE020C94BE020C94BE0250
:100030000C94BE020C94BE020C94BE020C94BE0240
:100040000C94BE020C94BE020C94BE020C94BE0230
:100050000C94BE020060006D0005800087009300D4
:1000600005A7006D007A00058D0093009F0005B381
:10007000007A008700059A009F00AB0005BF11249D
:100080001FBECFE5D8E0DEBFCDBFE4E5F0E040E045
:1000900017C0B591A59135912591059107FD0CC02B
:1000A00095918591EF01F92FE82F05900D92A217F8
:1000B000B307D9F7FE0104C01D92A217B307E1F7F9
:1000C000EE37F40731F70E9469000C946700F8944A
:0200D000FFCF60
:1000D2000E94310260E070E080E090E00E94CB017B
:1000E20060E070E084E090E00E94CB0160E070E0AC
:1000F20082E090E00E940F0261E070E082E090E016
:100102000E94ED0161E070E087E090E00E94ED0165
:1001120061E070E083E090E00E940F0281E090E0F5
:100122000E94B40283E00E946D022FEF83EC99E0FB
:10013200215080409040E1F700C0000083E00E941F
:100142005202C0E0D0E0E12CF12C00E010E080E0AF
:1001520090E00E949C02892B59F121E0022763E082
:1001620082E090E00E943C010115110539F00E94E5
:100172008F028FE990E00E94800211C00E948F02DC
:100182008AE790E00E9480028FEF93EC29E0815091
:1001920090402040E1F700C000000E948F028FEFE4
:1001A20093EC29E0815090402040E1F700C000002C
:1001B20084E090E00E949C02892B59F181E0E826BC
:1001C20063E087E090E00E943C01E114F10439F021
:1001D2000E948F0283E990E00E94800211C00E9477
:1001E2008F028DE690E00E9480029FEF23EC89E06F
:1001F200915020408040E1F700C000000E948F0231
:100202009FEF23EC89E0915020408040E1F700C04D
:10021200000082E090E00E94A802892B09F497CFA7
:1002220091E0C92764E083E090E00E943C012097BE
:1002320039F00E948F0287E890E00E94800211C08C
:100242000E948F0280E690E00E9480022FEF83ECF2
:1002520099E0215080409040E1F700C000000E94E8
:100262008F022FEF83EC99E0215080409040E1F71C
:0602720000C000006CCF8B
:100278006230B1F018F4613031F008956330E9F07C
:10028800643041F108954BB321E030E0B90102C078
:10029800660F771F8A95E2F7CB0184278BBB0895F9
:1002A80048B321E030E0B90102C0660F771F8A9594
:1002B800E2F7CB01842788BB089545B321E030E0FD
:1002C800B90102C0660F771F8A95E2F7CB01842730
:1002D80085BB089542B321E030E0B90102C0660F42
:0E02E800771F8A95E2F7CB01842782BB089529
:1002F6009BB39F70282F207F922B9BBBC198C39ADC
:1003060035E33A95F1F70000C398EFE3FFE1319743
:10031600F1F700C000002BB32F70F0E18F9FC001F2
:100326001124822B8BBBC39A35E03A95F1F7000076
:10033600C3988FE39FE10197F1F700C0000008958D
:100346009BB39F70282F207F922B9BBBC19AC39A89
:1003560035E33A95F1F70000C398EFE1F3E0319702
:10036600F1F700C000002BB32F70F0E18F9FC001A2
:100376001124822B8BBBC39A35E33A95F1F7000023
:10038600C3988FE59DE60197F1F700C00000089538
:100396006115710521F06130710579F0089547B353
:1003A60021E030E0B90102C0660F771F8A95E2F7B7
:1003B600CB018095842387BB089547B321E030E0C5
:1003C600B90102C0660F771F8A95E2F7CB01842B2D
:0403D60087BB089544
:1003DA006115710521F06130710579F0089544B312
:1003EA0021E030E0B90102C0660F771F8A95E2F773
:1003FA00CB018095842384BB089544B321E030E087
:10040A00B90102C0660F771F8A95E2F7CB01842BE8
:04041A0084BB089502
:10041E006115710521F06130710579F0089541B3D0
:10042E0021E030E0B90102C0660F771F8A95E2F72E
:10043E00CB018095842381BB089541B321E030E048
:10044E00B90102C0660F771F8A95E2F7CB01842BA4
:04045E0081BB0895C1
:100462008FEF8ABB8FE087BBC2982FEF89EF90E0B6
:10047200215080409040E1F700C0000083E30E94D9
:100482007B0182E30E947B0188E20E947B018CE077
:100492000E947B0186E00E947B0181E00E947B0139
:0204A2000895BB
:1004A400823069F018F4813031F00895833059F0C6
:1004B400843069F008958BB380958BBB089588B31D
:1004C400809588BB089585B3809585BB089582B3D4
:0604D400809582BB089533
:1004DA00823059F018F4813031F00895833039F0C0
:1004EA00843039F008951BBA089518BA089515BAD8
:0604FA00089512BA0895F6
:10050000CF93DF93EC018881882331F021960E94FC
:0E051000A30189918111FBCFDF91CF91089556
:10051E0081E00E947B018FE39FE10197F1F700C01C
:0A052E00000080E80E947B010895A0
:1005380026B330E0A90102C0559547958A95E2F7A0
:08054800CA0181709927089592
:1005500020B330E0A90102C0559547958A95E2F78E
:08056000CA018170992708957A
:10056800009719F0019719F0089514BA08958FEFBC
:0405780084BB0895A3
:04057C000C940000DB
:0D0580004C45442032206973204F46460050
:0D058D004C45442031206973204F46460044
:0D059A004C45442030206973204F46460038
:0C05A7004C45442032206973204F4E0068
:0C05B3004C45442031206973204F4E005D
:0C05BF004C45442030206973204F4E0052
:00000001FF
